:10000000DAC00000F4C00000F2C00000F0C0000040
:10001000EEC00000ECC00000EAC00000E8C0000034
:10002000E6C00000E4C00000E2C00000AEC6000070
:1000300072C60000DCC00000DAC00000D8C00000BA
:10004000D6C00000D4C00000D2C00000D0C0000064
:10005000CEC00000CCC00000CAC0000084C10000B7
:10006000C6C00000C4C00000C2C00000C0C0000084
:10007000BEC0000009023E00020100C032090400B7
:1000800000010202010005240001100424020605FB
:1000900024060001070582030800FF09040100028D
:1000A0000A00000007050402400001070583024022
:1000B000000109026500020100C0320904000000CD
:1000C00001010000092401000109000101090401E6
:1000D0000002010300000724010001410006240280
:1000E00001010006240202020009240301030102A7
:1000F0000100092403020401010100090501024075
:1001000000000000052501010109058202400000F0
:1001100000000525010103040309043203410072B4
:10012000006400750069006E006F002000280077F1
:1001300000770077002E006100720064007500698E
:10014000006E006F002E00630063002900000010A5
:10015000035900610065006C0074006500780000C0
:10016000001803410072006400750069006E006FA2
:1001700000200055006E006F00000016034D00695E
:10018000006E00690062006C006F0063006B00008D
:1001900000120110010200000841230100010001CA
:1001A000020001120110010000000841231010009C
:1001B00000010200010011241FBECFEFD2E0DEBF1C
:1001C000CDBF11E0A0E0B1E0ECE0F5E102C00590A8
:1001D0000D92A233B107D9F712E0A2E3B1E001C05A
:1001E0001D92A23BB107E1F707D30C94840A08CF14
:1001F0009C01DC01AE57BF4FED91FC9111974191ED
:100200001196FC93EE9380589F4FE817F90711F46D
:100210002D933C939FB7F894F901EC57FF4F8081E1
:10022000815080839FBF842F0895CF93DF93EC018B
:100230003091340198819F70923008F1DE0121E005
:10024000E32FF0E0E75AFE4F11968C9111978083CF
:100250003F5F3F73213029F4953089F09F3059F486
:100260000EC0223041F4923051F0963041F09C3073
:1002700031F09D3021F02F5F1196243009F7653061
:1002800018F024966450D6CF30933401DF91CF918B
:10029000089508950895DF92EF92FF920F931F93B0
:1002A000FC018489813019F0823021F405C040E3DB
:1002B000D42E04C0DD2402C030E2D32E83898230E4
:1002C00011F488E0D82A8589873031F0883031F000
:1002D000863031F482E003C084E001C086E0D82A91
:1002E0001092C9001092C8001092CA00E784F088EA
:1002F0000189128980E0E81681EEF80680E008079F
:1003000080E0180719F420E130E010C0C801B701FF
:10031000969587957795679560587B47814E9F4F57
:10032000A80197010E94620A215030403093CD000D
:100330002093CC00D092CA0080E0E81681EEF80647
:1003400080E0080780E0180711F082E001C080E03B
:100350008093C80088E98093C9001F910F91FF9096
:10036000EF90DF9008951F920F920FB60F92112415
:100370002F938F939F93EF93FF9380910001882396
:1003800019F59091CE008EB38430F1F4E0911C0207
:10039000F0911D029083E0911C02F0911D02CF01AB
:1003A000019690931D0280931C028C51924021F47F
:1003B0008CE991E0928381839FB7F8948091200229
:1003C0008F5F809320029FBFFF91EF919F918F914C
:1003D0002F910F900FBE0F901F901895FC018585EF
:1003E00080FF02C05F9808955F9A08958091000190
:1003F000882319F481E091E071C70895809100018C
:10040000813021F487E191E00C942E0A81E091E0A3
:100410001BC784B7877F84BF88E10FB6F8948093A9
:100420006000109260000FBE82E084B98CE085B954
:100430008AB180638AB98BB180638BB980E090E028
:100440005C985C9A019684369105D1F71A9913C08D
:100450001092000187E690E09093CD008093CC004D
:1004600086E08093CA001092C80088E18093C9009A
:10047000539A5A9A12C081E0809300011B9905C0DB
:10048000809332011092CC0003C08FE18093CC00A6
:1004900088E18093C9008EE085B984E085BD30D4C1
:1004A00080910001882311F45F9A579A08950F9361
:1004B0001F93CF93DF932FB7F89481E292E090934C
:1004C000A2028093A1029093A4028093A3022FBF63
:1004D0002FB7F8948CE991E090931D0280931C0251
:1004E00090931F0280931E022FBF7894C1E2D2E046
:1004F00003E08FB7F8949091A5028FBF903809F16F
:1005000081E091E017D697FD1CC0E091A102F09127
:10051000A2028083E091A102F091A202CF01019694
:100520009093A2028093A102815A924011F4D28347
:10053000C1839FB7F8948091A5028F5F8093A50235
:100540009FBF8FB7F894109120028FBFA89902C067
:10055000113678F1A89A80912002882361F05D9885
:100560000093990108C08CE991E042DE682F81E098
:1005700091E046D611501123B1F78091990188235B
:1005800051F0809199018150809399018091990156
:10059000882309F45D9A80919A01882351F0809113
:1005A0009A01815080939A0180919A01882309F4DD
:1005B0005C9A8FB7F8949091A5028FBF992369F048
:1005C00081E292E015DE982F8091C80085FFFCCF74
:1005D0009093CE005C9800939A0181E091E001D65F
:1005E00096D587CF382F80913701882331F18091BC
:1005F0003601373F81F4E82FF0E0E75BFE4F3083B0
:100600008F5F809336018D5F80934901109237018F
:100610001092380165C0E82FF0E0E75BFE4F3083B1
:10062000E82FEF5FE0933601E43009F05BC0E09320
:10063000490181E0809336010895383F50F08FE002
:100640008093490130934A0110924B0110924C0162
:1006500047C037FF0DC0303F49F481E08093370138
:1006600030934A0182E08093360118C0109238011D
:10067000E0913801EE23A1F4232F22952F70822FD1
:1006800090E0877090700196880F991F80933801D1
:100690002093390130933A0110923C0180E0089593
:1006A000F0E0DF01AF5DBE4F9C91E170F070E75C60
:1006B000FE4F3283892F8F708093380197FF12C0CD
:1006C0008091390190913A01A0913B01B0913C0198
:1006D0008093490190934A01A0934B01B0934C0140
:1006E00081E0089580E00895CF92DF92EF92FF922B
:1006F0000F931F93DF93CF9300D000D0CDB7DEB719
:10070000789403E07E010894E11CF11C78E2C72E86
:1007100062E0D62E8091C80087FF0BC01091330194
:100720008091CE005FDF182B109333015D9800930A
:10073000990180913301882389F087E191E069E490
:1007400071E069D687E191E052D61092330106C07C
:10075000C70164E06ADD5C9800939A0187E191E04B
:10076000B70127D68823A1F78091C80085FF11C063
:100770009091350180913401891759F0E92FF0E00B
:10078000E75AFE4F80818093CE009F5F9F739093C6
:100790003501A89B1DC0A89A80919901882351F02A
:1007A00080919901815080939901809199018823CA
:1007B00009F45D9A80919A01882351F080919A0101
:1007C000815080939A0180919A01882309F45C9A60
:1007D0009ED480913201813009F09CCF809120011C
:1007E000815080932001882309F094CFC09220018A
:1007F00085B18D2585B98ECF0CDE809100018130C9
:1008000011F472DF01C053DE80E090E00895DA0158
:10081000923089F09330E9F0913009F03FC0809137
:100820000001813019F0E1E9F1E002C0E3EAF1E012
:1008300022E130E037C080910001813029F0E4E707
:10084000F0E02EE330E02EC0E2EBF0E025E630E011
:1008500029C0813049F0813018F08230F9F410C09D
:10086000E7E1F1E0849113C080910001813021F42F
:10087000EFE4F1E084910BC0EBE1F1E0849107C07B
:1008800080910001813031F4EBE7F1E08491282F71
:1008900030E008C0E1E6F1E08491F9CFE0E0F0E07B
:1008A00020E030E0ED93FC93C901089528E030E0AA
:1008B00040E003C04F5F220F331F28173907D0F3E2
:1008C000842F8295807F08958093E9008091EB00CA
:1008D00081608093EB001092ED006093EC004093F8
:1008E000ED008091EE00881F8827881F08951092E0
:1008F000F40090E09093E9001092F0001092E8006C
:100900001092ED008091EB008E7F8093EB009F5F53
:10091000953081F708958091AA0288238CF403C052
:100920008EB38823B1F08091E80082FFF9CF8091E7
:10093000E8008B778093E80008958EB3882349F010
:100940008091E80080FFF9CF8091E8008E77809356
:10095000E800089594E68091EC0080FF05C0809146
:10096000E80080FF05C023C08091E80082FD1FC021
:100970008EB3882311F482E008958EB3853011F48C
:1009800083E008958091EB0085FF02C081E0089527
:100990008091E10082FFDFCF8091E1008B7F809327
:1009A000E100992311F484E008959150D4CF80E0C0
:1009B0000895DF92EF92FF920F931F93CF93DF93EF
:1009C000182F092FEB017A01C5DFD82E882319F5DE
:1009D000812F902F9C0189011CC08091E80085FD2A
:1009E00012C08091E8008E778093E800E114F10452
:1009F00031F0F7010995813011F485E00DC0AADFCF
:100A0000882339F009C0F80181918F018093F100AA
:100A10002197209711F78D2DDF91CF911F910F9185
:100A2000FF90EF90DF900895DF92EF92FF920F9387
:100A30001F93CF93DF93182F092FEB017A018ADFE1
:100A4000D82E882319F5812F902F9C0189011CC075
:100A50008091E80085FD12C08091E8008B7780933B
:100A6000E800E114F10431F0F7010995813011F447
:100A700085E00DC06FDF882339F009C08091F10057
:100A8000F80181938F012197209711F78D2DDF9128
:100A9000CF911F910F91FF90EF90DF9008959C01EF
:100AA0004091B0025091B1024617570718F4F9016E
:100AB00020E038C06115710511F0AB01F8CF8091CD
:100AC000E8008E778093E80040E050E0F0CF80911E
:100AD000E80083FF02C081E008958091E80082FD74
:100AE0002DC08EB3882381F18EB3853079F180914A
:100AF000E80080FF17C09091F20006C081918093BA
:100B0000F100415050409F5F4115510511F0983060
:100B1000A8F320E0983009F421E08091E8008E7776
:100B20008093E8004115510591F6222381F606C015
:100B30008EB3882349F08EB3853041F08091E80070
:100B400082FFF6CF80E0089582E0089583E0089563
:100B50009C014091B0025091B1024617570710F422
:100B600090E03BC06115710511F0AB01F9CF8091A8
:100B7000E8008E778093E80040E050E0F1CF80916C
:100B8000E80083FF02C081E008958091E80082FDC3
:100B900030C08EB3882399F18EB3853091F1809166
:100BA000E80080FF1AC08091F20009C0F9012F5FB0
:100BB0003F4FE491E093F100415050408F5F411569
:100BC000510511F0883090F390E0883009F491E0FD
:100BD0008091E8008E778093E8004115510579F601
:100BE000992369F606C08EB3882349F08EB3853009
:100BF00041F08091E80082FFF6CF80E0089582E026
:100C0000089583E008959C016115710529F4809190
:100C1000E8008B778093E800F90120C08091E8001C
:100C200083FF02C081E008958EB3882339F18EB32B
:100C3000853031F18091E80082FFF0CF06C08091CD
:100C4000F10081936150704021F08091F20088237F
:100C5000B1F78091E8008B778093E800611571050A
:100C6000E9F606C08EB3882349F08EB3853041F093
:100C70008091E80080FFF6CF80E0089582E008953B
:100C800083E0089542D044D01EBA1092A802109278
:100C9000A7021092A60284E089BD89B5826089BD51
:100CA00009B400FEFDCF8091D800982F9F779093D4
:100CB000D80080688093D800809163008E7F8093F5
:100CC00063008091D8008F7D8093D8008091E000F0
:100CD0008E7F8093E0008091E1008E7F8093E10021
:100CE0008091E20081608093E2008091E100877F43
:100CF0008093E1008091E20088608093E200089593
:100D0000C1DF81E08093A90208951092E200089566
:100D10001092E10008951F920F920FB60F921124C6
:100D20001F932F933F934F935F936F937F938F9373
:100D30009F93AF93BF93EF93FF93E9EEF0E01081A1
:100D400017701082E0EFF0E08081877F80837894D5
:100D5000C3D0F894A9EEB0E01C92E0EFF0E08081FF
:100D6000886080831C93FF91EF91BF91AF919F9119
:100D70008F917F916F915F914F913F912F911F9133
:100D80000F900FBE0F901F9018951F920F920FB6E5
:100D90000F9211242F933F934F935F936F937F9301
:100DA0008F939F93AF93BF93EF93FF938091E10055
:100DB00080FF1BC08091E20080FF17C08091E1009E
:100DC0008E7F8093E1008091E2008E7F8093E2002D
:100DD0008091E20080618093E2008091D80080627F
:100DE0008093D80019BC1EBA55DA8091E10084FFC7
:100DF00029C08091E20084FF25C084E089BD89B5C7
:100E0000826089BD09B400FEFDCF8091D8008F7D3E
:100E10008093D8008091E1008F7E8093E1008091E3
:100E2000E2008F7E8093E2008091E20081608093F7
:100E3000E2008091A802882311F481E001C084E0DF
:100E40008EBB27DA8091E10083FF27C08091E2000A
:100E500083FF23C08091E100877F8093E10082E0DF
:100E60008EBB1092A8028091E1008E7F8093E100FA
:100E70008091E2008E7F8093E2008091E2008061A9
:100E80008093E20034DD80E060E042E01DDD80918F
:100E9000F00088608093F00039D18091E10082FFFA
:100EA0000AC08091E20082FF06C08091E1008B7F42
:100EB0008093E1002BD1FF91EF91BF91AF919F9172
:100EC0008F917F916F915F914F913F912F910F90F3
:100ED0000FBE0F901F9018951F93DF93CF9300D0F4
:100EE000CDB7DEB7EAEAF2E08091F100819382E0CB
:100EF000E23BF807C9F78091AA023091AB02353086
:100F000009F487C0363040F43130C9F1313070F027
:100F1000333009F0E6C033C0383009F4B8C0393096
:100F200009F4C7C0363009F0DCC092C0803821F027
:100F3000823809F0D6C008C09091A6028091A7021D
:100F4000882399F0926011C08091AE0287708093DF
:100F5000E9008091EB0090E025E0969587952A9531
:100F6000E1F7982F91701092E9008091E800877F57
:100F70008093E8009093F1001092F10093C08823D1
:100F800019F0823009F0ADC090E08F719070009739
:100F900021F0029709F0A6C00CC08091AC0281300C
:100FA00009F0A0C01092A702333069F58093A70220
:100FB0002AC08091AC02882331F52091AE022770BF
:100FC00009F490C02093E9008091EB0080FF8AC073
:100FD000333021F48091EB00806213C08091EB00EC
:100FE00080618093EB0081E090E002C0880F991F40
:100FF0002A95E2F78093EA001092EA008091EB00D4
:1010000088608093EB001092E9008091E800877F70
:101010004CC0882309F065C01091AC028091E800B3
:10102000877F8093E80077DC04C08EB3882309F4BF
:1010300059C08091E80080FFF8CF812F8F7711F49D
:1010400092E001C093E09EBB80688093E3004AC0B9
:101050008058823008F045C08091AC029091AD027A
:101060006091AE02AE014F5F5F4FD1DBBC010097D4
:10107000C9F18091E800877F8093E80089819A8197
:1010800067DD8091E8008B778093E8002BC0803883
:1010900041F58091E800877F8093E8008091A80265
:1010A0008093F1008091E8008E778093E80033DC34
:1010B00019C08823B1F49091AC02923098F48091D9
:1010C000E800877F8093E8009093A80224DC809159
:1010D000A802882311F483E001C084E08EBB8ED97E
:1010E00001C084D98091E80083FF0AC08091EB00A1
:1010F00080628093EB008091E800877F8093E80016
:101100000F900F90CF91DF911F91089508951F9335
:101110008EB3882361F01091E9001092E90080916C
:10112000E80083FF01C0D8DE17701093E9001F911B
:1011300008950895FC018EB3843021F58785908948
:10114000A189B2890097A105B105E1F0858180935D
:10115000E9008091E80082FF15C08091F2008823A9
:1011600019F42FEF3FEF04C08091F100282F30E0F9
:101170008091F200882341F48091E8008B7780937E
:10118000E80002C02FEF3FEFC9010895FC018EB3C4
:10119000843011F587859089A189B2890097A105CE
:1011A000B105D1F081818093E9008091F20088231C
:1011B000A9F09091E8008091E8008E778093E80094
:1011C00095FD0CC0C7DB982F882349F48091E80077
:1011D0008E778093E80003C092E001C090E0892FF1
:1011E0000895FC018EB3843051F487859089A189DC
:1011F000B2890097A105B10511F0CF01C7CF0895BD
:101200001F93FC01162F8EB38430D9F48785908903
:10121000A189B2890097A105B10599F081818093D8
:10122000E9008091E80085FD08C08091E8008E7794
:101230008093E8008FDB882329F41093F10080E08D
:1012400001C082E01F9108950F931F93CF93DF9306
:10125000EC010D96FC0189E0DF011D928A95E9F70A
:101260002A813B8109818C81882311F410E001C01F
:1012700014E0C9011BDB182B1260802F61E8412F9D
:1012800023DB882329F12E813F810D8188858823E6
:1012900011F410E001C014E0C90108DB182B126042
:1012A000802F60E8412F10DB882391F02A853B8551
:1012B00009858C85882311F410E001C014E0C90170
:1012C000F5DA182B1260802F61EC412FFDDA01C096
:1012D00080E0DF91CF911F910F910895CF93DF931D
:1012E000EC018091E80083FF61C0888190E020914B
:1012F000AE023091AF022817390709F057C080912C
:10130000AB02813261F0823220F4803209F04EC0AB
:1013100019C0823271F1833209F048C039C080911E
:10132000AA02813A09F042C08091E800877F809349
:10133000E800CE010F9667E070E0B1DB8091E80035
:101340008B7714C08091AA02813281F58091E800E8
:10135000877F8093E800CE010F9667E070E053DC52
:10136000CE010E944B018091E8008E778093E800C7
:101370001DC08091AA028132C9F48091E800877F64
:101380008093E8008091AC028D87CE0127D80DC0F4
:101390008091AA02813251F48091E800877F809386
:1013A000E800CE016091AC02C4DEB5DADF91CF91E6
:1013B0000895FC018EB38430C1F485818093E900E7
:1013C0008091E80085FF11C0CB0164E070E040E04F
:1013D00050E02ADB8091E80085FD05C08091E8009F
:1013E0008B778093E80081E0089580E00895FC0108
:1013F0008EB3843011F082E0089581818093E900FA
:101400008091F200882331F08091E8008E778093FC
:10141000E800A0CA0895FC018EB3843011F092E078
:101420001BC081818093E9008091E80085FD02C0A6
:1014300090E012C0CB0164E070E040E050E0B9DA27
:10144000982F882349F48091E80085FD05C080919C
:10145000E8008E778093E800892F08950F931F93FB
:10146000CF93DF93EC010981002391F02A813B8126
:101470008C81882311F410E001C014E0C90116DA50
:10148000182B1260802F61E8412F1EDA8823A9F003
:101490000D81002389F02E813F818885882311F4F6
:1014A00010E001C014E0C90101DA182B1260802F8E
:1014B00060E8412F09DA811181E0DF91CF911F911E
:1014C0000F910895A1E21A2EAA1BBB1BFD010DC0AE
:1014D000AA1FBB1FEE1FFF1FA217B307E407F507E4
:1014E00020F0A21BB30BE40BF50B661F771F881FC0
:1014F000991F1A9469F760957095809590959B0156
:0C150000AC01BD01CF010895F894FFCFAD
:10150C00010003400000044000000208000000003D
:10151C00000000000000000102400000014000003B
:10152C0028000003820584078609888A008C000F36
:02153C008E001F
:00000001FF
